:020000040800F2
:1000000080070020890100089D140008E707000808
:1000100051130008390300085F25000800000000A4
:10002000000000000000000000000000B51A0008F9
:100030003D0300080000000059190008E51B0008F6
:10004000A3010008A3010008A3010008A301000800
:10005000A3010008A301000841030008A301000850
:10006000A3010008A3010008A3010008A3010008E0
:10007000A3010008A3010008A3010008A3010008D0
:10008000A3010008A3010008A3010008A3010008C0
:10009000A3010008A3010008A3010008A3010008B0
:1000A000A3010008A3010008A3010008A3010008A0
:1000B000891E0008A11E0008A3010008A301000872
:1000C000A3010008A3010008A3010008A301000880
:1000D000A3010008F5220008A3010008A3010008FD
:1000E000A3010008A3010008A301000800F002F822
:1000F00000F03AF80AA090E8000C82448344AAF188
:100100000107DA4501D100F02FF8AFF2090EBAE885
:100110000F0013F0010F18BFFB1A43F0010318473B
:10012000F845000018460000103A24BF78C878C18E
:10013000FAD8520724BF30C830C144BF04680C60ED
:10014000704700000023002400250026103A28BF35
:1001500078C1FBD8520728BF30C148BF0B60704739
:100160001FB51FBD10B510BD00F044F81146FFF7D4
:10017000F7FF02F029FE00F062F803B4FFF7F2FF88
:1001800003BC00F065F800000948804709480047B3
:10019000FEE7FEE7FEE7FEE7FEE7FEE7FEE7FEE737
:1001A000FEE7FEE704480549054A064B7047000094
:1001B000E91B0008ED0000088001002080070020F6
:1001C000800300208003002070477047704710B5FF
:1001D00000F008F8006810BD10B5044600F002F801
:1001E000046010BD004870471C01002000487047A3
:1001F0001C0100207546FFF7F9FFAE460500694671
:10020000534620F00700854618B020B5FFF7CAFF17
:10021000BDE820404FF000064FF000074FF0000807
:100220004FF0000B21F00701AC46ACE8C009ACE888
:10023000C009ACE8C009ACE8C0098D46704710B5EC
:100240000446AFF300802046BDE81040FFF795BF9D
:1002500001491820ABBEFEE726000200704710B52A
:1002600001F0F8F901F076F800F054F900F0AAF97D
:1002700000F04EFF00F0BAFE00F002F810BD0000E2
:1002800000B587B00121880301F078FB012104202B
:1002900001F074FB18208DF81B004FF40070ADF8CE
:1002A000180003208DF81A0006A9214800F0FEF975
:1002B00048208DF81B004FF48060ADF81800032033
:1002C0008DF81A0006A91A4800F0F0F94FF41650FC
:1002D00002900020ADF814000C20ADF812000020B0
:1002E000ADF81000ADF80E00ADF80C0002A91148F1
:1002F00002F0C4F8012240F225510E4802F099F8AC
:100300004FF4A06001F004F925208DF804000120CD
:100310008DF807008DF805008DF8060001A801F0A2
:10032000BFF80121034802F04EF807B000BD0000FD
:10033000000801400038014000BFFEE770470000A0
:1003400010B5012000F088F8012861D10121314861
:1003500000F037FA002858D101202F4908700846CC
:10036000007801284ED1042001F082FB00B22B4915
:100370000880022001F07CFB00B22949088000F0CF
:10038000C9FC28490A69284908682849096801F010
:1003900007FC274908602248B0F900201F48B0F93F
:1003A00000102448B0F9000002F0DCF8224908608F
:1003B0001C4841692148B0F9000001F079FF20494B
:1003C00008601B4800681C49096808441C49096802
:1003D000401A1C4908601648006817490968084413
:1003E00017490968084418490860164800F0CCFF0E
:1003F0001448008800B201F005F81348008800B2E4
:1004000001F026F8002004490870012000F01EF8D1
:1004100010BD0000000C01407C0000207000002096
:100420007200002094000020AC0000208C0000200E
:100430008000002090000020840000209200002016
:100440008800002074000020780000200149086026
:100450007047000014040140014600200022074BB1
:100460001B6803EA0102054B14331B680B4013B1F0
:100470000AB1012000E000207047000000040140A4
:10048000002123498279002A3AD00A46126803687B
:100490009A430B461A600A1D126803689A430B1DA3
:1004A0001A60027911440A6803681A430A60184AFC
:1004B0000832126803689A43154B08331A601A1DF4
:1004C000126803689A43124B0C331A604279102A5F
:1004D0000ED11A1F126803681A430D4B08331A60B5
:1004E0001A1D126803681A43094B0C331A600DE099
:1004F0000749427911440A6803681A430A6005E013
:10050000027911440A6803689A430A607047000040
:100510000004014000B587B00121084601F01EFA31
:100520000121042001F02AFA48208DF81B00032045
:10053000ADF818008DF81A0006A9214800F0B6F8A9
:1005400000231A4603214FF0804001F0E4FC002014
:10055000ADF81200ADF80E004FF6FF70ADF81000C8
:100560000020ADF80C008DF8140003A94FF0804076
:1005700001F04CFE00231A4603214FF0804001F0A9
:10058000CAFC684601F052FD0A20ADF80800694631
:10059000400701F0F5FC0121880701F09BFC0122D6
:1005A0001146900701F04BFD00214FF0804001F013
:1005B000FFFD0121880701F093FC07B000BD00009A
:1005C0000008014000B587B00121022001F0C6F902
:1005D0000121042001F0D2F948208DF81B00C02031
:1005E000ADF8180003208DF81A0006A91D4800F088
:1005F0005DF800231A4603211B4801F08CFC002003
:10060000ADF81200ADF80E004FF6FF70ADF8100017
:100610000020ADF80C008DF8140003A9124801F079
:10062000F5FD00231A4603210F4801F074FC0A204F
:10063000ADF8080069460C4801F0A2FC01210A4807
:1006400001F048FC01221146074801F0F8FC0021A6
:10065000054801F0ADFD0121034801F041FC07B060
:1006600000BD0000000801400004004030B5002239
:100670008B071C0F0F2303FA04F20B4B8C1053F85B
:1006800024309343084C8D1044F8253023468C10B9
:1006900053F824308C07240F00FA04F42343024C4F
:1006A0008D1044F8253030BD080001402DE9F0419F
:1006B000024600250026002000230024002791F890
:1006C00003C00CF00F0591F803C00CF0100CBCF146
:1006D000000F03D091F802C04CEA050591F800C064
:1006E000BCF1000F31D0146800202BE04FF0010C5A
:1006F0000CFA00F3B1F800C00CEA03069E4220D1C8
:1007000083004FF00F0C0CFA03F7BC4305FA03FC0F
:100710004CEA040491F803C0BCF1280F06D14FF055
:10072000010C0CFA00FCC2F814C00AE091F803C0F6
:10073000BCF1480F05D14FF0010C0CFA00FCC2F8D7
:1007400010C0401C0828D1D31460B1F800C0BCF11F
:10075000FF0F34DD546800202EE000F1080C4FF04C
:10076000010808FA0CF3B1F800C00CEA03069E4237
:1007700021D183004FF00F0C0CFA03F7BC4305FAAC
:1007800003FC4CEA040491F803C0BCF1280F05D126
:1007900000F1080C08FA0CF8C2F8148091F803C0B4
:1007A000BCF1480F07D100F1080C4FF0010808FA1E
:1007B0000CF8C2F81080401C0828CED35460BDE865
:1007C000F0810246002093680B400BB1012000E04D
:1007D0000020704741617047016170470AB10161B3
:1007E00000E04161704700BFFEE721B1028842F49A
:1007F0008062028004E002884FF6FF331A400280D4
:10080000704770B502460024002500230020958A19
:10081000138B1B0445EA030626F07F4404EA010615
:100820008E4201D1012000E0002070BD21B102887C
:1008300042F00102028004E002884FF6FE731A4083
:100840000280704721B1028842F48072028004E085
:1008500002884FF6FF631A400280704721B1028878
:1008600042F40072028004E002884FF6FF531A40FF
:10087000028070472DE9F04385B004460D460026FE
:10088000B1460427DFF8CC80A6884FF6C07006403A
:10089000684601F083F8DDF808802F48B8FBF0F0D7
:1008A0001FFA80F946EA0906A68020884FF6FE71F5
:1008B0000840208000262949286888420CD82868EA
:1008C0004000B8FBF0F087B2042F00DA04273E4363
:1008D00009F10100208427E0E8884BF6FF71884287
:1008E00006D1286800EB4000B8FBF0F087B209E0C1
:1008F000286800EBC00101EB0010B8FBF0F087B2F4
:1009000047F48047C7F30B0008B947F0010747F4E5
:10091000004006434FF4967009FB00F04FF47A71E3
:1009200090FBF1F0401C2084A683208840F0010059
:10093000208026884FF6F5300640A888698908434C
:1009400006432680A88929890843208105B0BDE88F
:10095000F083000000127A0040420F00A0860100E0
:100960000146088AC0B2704712B141F0010102E0AD
:100970004FF6FE73194001827047018270470000F4
:100980002DE9F04F91B0044626686768D4F80880D6
:10099000E068109020690F9060690E90D648D0F8FA
:1009A00000904568D0F808A0D0F80CB04146404609
:1009B00003F04CF939460590384603F047F93146C3
:1009C0000390304603F042F90290039902F0A6FF2B
:1009D0000490059902F0A2FF069002F0CFF907906B
:1009E0003046079903F032F906463846079903F076
:1009F0002DF907464046079903F028F980465146ED
:100A0000484603F023F959460590284603F01EF99D
:100A10000490059903F022FA4FF08041069003F00C
:100A200015F90D902946484603F010F959460590EE
:100A3000504603F00BF90490059902F06FFF4FF058
:100A40008041069003F002F90C905946584603F095
:100A5000FDF851460690504603F0F8F829460490F8
:100A6000284603F0F3F849460290484603F0EEF8B2
:100A70000190029903F0F2F90390049903F0EEF962
:100A80000590069902F04AFF0B9040460C9903F03E
:100A9000DDF8069038460B9903F0D8F805900699D2
:100AA00003F0DCF90A9030460B9903F0CFF806907A
:100AB00040460D9903F0CAF80590069903F0CEF967
:100AC000099038460D9903F0C1F8069030460C990C
:100AD00003F0BCF80590069903F0C0F90890874828
:100AE0000A9903F0B3F8069085480168069802F069
:100AF00015FF834908608148099903F0A7F806901B
:100B000080480168069802F009FF7E4908607B482A
:100B1000089903F09BF806907B480168069802F05C
:100B2000FDFE7949086079480A9903F08FF805902D
:100B300073480168059802F0F1FE0690109902F0E2
:100B4000EDFE10907148099903F080F805906D480A
:100B50000168059802F0E2FE06900F9902F0DEFEB1
:100B60000F906A48089903F071F80590664801688B
:100B7000059802F0D3FE06900E9902F0CFFE0E907B
:100B800058460E9903F062F8049050460F9903F00E
:100B90005DF8029085F000400090109903F056F83F
:100BA0000190029903F05AF90390049903F056F961
:100BB0005749059003F04AF84946069002F0AEFE08
:100BC000814658460F9903F041F8049050460E991B
:100BD00003F03CF802904846109903F037F8019072
:100BE000029902F09BFE0390049903F037F94849FB
:100BF000059003F02BF82946069002F08FFE05467B
:100C00005846109903F022F8049028460E9903F0F4
:100C10001DF8029048460F9903F018F801900299C8
:100C200003F01CF90390049902F078FE384905900E
:100C300003F00CF85146069002F070FE82465046D2
:100C4000109903F003F8049028460F9902F0FEFF74
:100C5000029048460E9902F0F9FF0190029902F0C5
:100C60005DFE0390049903F0F9F82949059002F01C
:100C7000EDFF5946069002F051FE8346594658460C
:100C800002F0E4FF51460590504602F0DFFF29468E
:100C90000390284602F0DAFF49460190484602F0E8
:100CA000D5FF0090019902F039FE0290039902F0FD
:100CB00035FE0490059902F031FE069002F05EF8D0
:100CC00007904846079902F0C1FF0B490860284683
:100CD000079902F0BBFF084948605046079902F0A7
:100CE000B5FF054988605846079902F0AFFF0249F1
:100CF000C86011B0BDE8F08F3C0000206F12833A4D
:100D00004C00002050000020540000200000A041B2
:100D10000AD7233B2DE9F04F87B000F0EDF8724879
:100D2000FFF72EFE714801684FF0804002F08EFF01
:100D300004906E488168049802F088FF83466B48EF
:100D400041684FF0404002F081FF04906748C1685D
:100D5000049802F07BFF5946059002F0DFFD8246C1
:100D600002F0B0FD804601F001FD06464FF066320C
:100D70005F4B02F0CDFA044602F090F85D4908603E
:100D80005A4881684FF0804002F060FF0190574858
:100D90008168019802F05AFF8246544841684FF03A
:100DA000404002F053FF019050484168019802F022
:100DB0004DFF8346514603F051F881464FF07E5176
:100DC00002F0ACFD044602F07DFDCDE90401474888
:100DD00001684FF0804002F039FF83464348416884
:100DE000584602F033FF8146404881684FF080400A
:100DF00002F02CFF83463D48C168584602F026FFAA
:100E00008246494602F08AFD044602F05BFDCDE9C8
:100E10000201DDE9042301F0F1FE07464FF06632DE
:100E2000334B02F075FA054602F038F83149486054
:100E30002E4881684FF0804002F008FF01902B4857
:100E40008168019802F002FF82462848C1684FF08D
:100E5000404002F0FBFE01902448C168019802F076
:100E6000F5FE8346514602F0F9FF81464FF07E5170
:100E700002F054FD044602F025FD05460E461B48CF
:100E800001684FF0804002F0E1FE83461748C168D8
:100E9000584602F0DBFE8146144841684FF080401E
:100EA00002F0D4FE834611488168584602F0CEFE17
:100EB0008246494602F032FD044602F003FD074631
:100EC0002A46334601F09AFE4FF06632084BCDE9D0
:100ED000020102F01DFACDE9040101F0DFFF05492E
:100EE000886007B0BDE8F08F940000203C0000202F
:100EF00066A64C40AC0000202DE9FC413248334945
:100F0000334B344ACDE900103349344800F0AAF895
:100F10003248B0F9000002F04DFE04464FF08A411D
:100F200002F06AFD2E4908602B48B0F9000002F07B
:100F300041FE04464FF08A4102F05EFD28494860B8
:100F40002448B0F9000002F035FE04464FF08A4113
:100F500002F052FD224988601D48B0F9000002F0FD
:100F600029FE804602F0AEFC06461E4A1E4B02F0E9
:100F7000CFF9044601F092FF1949C8601348B0F94F
:100F8000000002F017FE804602F09CFC0646154A5F
:100F9000154B02F0BDF9044601F080FF10490861CD
:100FA0000948B0F9000002F005FE804602F08AFC14
:100FB00006460C4A0C4B02F0ABF9044601F06EFFFA
:100FC00007494861BDE8FC813A0000203800002054
:100FD00036000020340000203200002030000020C5
:100FE00094000020D508FD4CBD6E513F1FB5012176
:100FF000082000F0C3FC0121084600F0BFFC482097
:101000008DF80F000120ADF80C0003208DF80E00C4
:1010100003A91348FFF74AFB00210120FFF726FB35
:10102000012001908DF80A0000208DF808000C20A6
:101030008DF8090001A8FFF723FA4FF4A06000F033
:1010400067FA06208DF8000001208DF803000020CB
:101050008DF801008DF80200684600F021FA1FBDEE
:10106000000C01402DE9F05F06460F469046994678
:10107000DDE90AAB3B2000F0DBF804463C2000F041
:10108000D7F8054645EA042000B230803D2000F044
:10109000CFF804463E2000F0CBF8054645EA042090
:1010A00000B238803F2000F0C3F80446402000F032
:1010B000BFF8054645EA042000B2A8F80000432026
:1010C00000F0B6F80446442000F0B2F8054645EAC0
:1010D000042000B2A9F80000452000F0A9F8044659
:1010E000462000F0A5F8054645EA042000B2AAF81B
:1010F0000000472000F09CF80446482000F098F8D3
:10110000054645EA042000B2ABF80000BDE8F09FB8
:1011100070B586B042480088B0F57A7F03DD4FF4A1
:101120007A703F4908803E480088042802DA04208B
:101130003B4908803A4800884FF47A7191FBF0F0FF
:10114000401EC5B200263649088800EBD0714C100D
:10115000BC2C01DB012610E0622C01DB02260CE036
:101160002A2C01DB032608E0142C01DB042604E012
:101170000A2C01DB052600E006260121880500F087
:10118000EDFB0121082000F0F9FB1C208DF8170071
:101190004FF44060ADF8140003208DF8160005A947
:1011A0002048FFF783FA0020ADF808001E480190A0
:1011B0004BF6FF70ADF80A004FF48060ADF80E00FA
:1011C0000001ADF810000020ADF80C0001A917488F
:1011D000FFF750FB01211548FFF728FB01216B2089
:1011E00000F084F800216C2000F080F829461920D6
:1011F00000F07CF831461A2000F078F818211B2006
:1012000000F074F818211C2000F070F880213720BD
:1012100000F06CF80121382000F068F806B070BDCD
:1012200058000020000C014090D0030000580040FE
:1012300070B5044601212148FFF704FB20491F48EF
:1012400000F042F80022D0211C48FFF78DFB1D4919
:101250001A4800F039F821461848FFF78EFB194963
:10126000891C164800F030F801211448FFF7EAFA0B
:101270001349124800F028F80122D0210F48FFF747
:1012800073FB0F49491C0D4800F01EF800210B4864
:10129000FFF7ABFA01210948FFF7E0FA08493F31AF
:1012A000064800F011F80548FFF75AFB05460121F2
:1012B0000248FFF79AFA284670BD00000058004027
:1012C000010003008200070070B505460E4642F299
:1012D000107402E0641E04B905E031462846FFF7A9
:1012E00090FA0128F6D100BF70BD000070B5044629
:1012F0000D4601211348FFF7A5FA13491148FFF7DE
:10130000E3FF0022D0210F48FFF72EFB0F490D48C5
:10131000FFF7DAFF21460B48FFF72FFB0B49891E29
:101320000848FFF7D1FF29460648FFF726FB074983
:10133000891C0448FFF7C8FF01210248FFF78EFA15
:1013400070BD00000058004001000300820007004B
:1013500000BFFEE708B50121042000F00FFB1020BC
:101360008DF803003C20ADF8000003208DF802004A
:1013700069460448FFF79AF901214FF4E15000F063
:1013800069FA08BD0008014070B504460D461849C9
:1013900020680968884202DD154800682060154908
:1013A00020680968884202DA124800682060104903
:1013B00028680968884202DD0D48006828600D49E8
:1013C00028680968884202DA0A48006828600A49E1
:1013D00008680A4902F006FD05D907490868084966
:1013E00002F000FC02D800202060286070BD0000E0
:1013F0005C00002060000020AC0000200000604283
:10140000000030C210B50446002C0EDB0E490988DE
:10141000214488B200F08CFA10210C48FFF7DCF967
:1014200020210A48FFF7D6F90DE007490988091B72
:1014300088B200F07DFA10210448FFF7CBF9202193
:101440000248FFF7C9F910BD640000200008014000
:1014500010B50446002C0EDB0E490988214488B2E1
:1014600000F070FA04210C48FFF7B6F908210A4889
:10147000FFF7B0F90DE007490988091B88B200F0B1
:1014800061FA04210448FFF7A5F908210248FFF793
:10149000A3F910BD6400002000080140704700005F
:1014A00070B5002100230F22C47804B3154C2468C2
:1014B00004F4E064C4F5E064210AC1F10403CA4005
:1014C000447804FA03F184781440214309010E4C56
:1014D0000678A155047804F01F050124AC40057876
:1014E0006D11AD0005F1E025C5F8004109E0047873
:1014F00004F01F050124AC40044D0678761145F830
:10150000264070BD0CED00E000E400E080E100E06A
:1015100002490143024A1160704700000000FA05C9
:101520000CED00E070B500240EE00021204600F034
:10153000F2F8002504E0002000F07BF9681CC5B239
:10154000802DF8DB601CC4B2082CEEDB70BD0000FF
:1015500008B50121082000F011FA14208DF80300CD
:1015600003208DF802008020ADF8000069460B488A
:10157000FFF79CF84FF48070ADF80000694607480B
:10158000FFF794F8012280210448FFF727F9012290
:1015900011020248FFF722F908BD0000000C0140CB
:1015A00070B50546002418E080202041284008B18D
:1015B000012000E0002002464FF480710D48FFF743
:1015C0000DF9012280210B48FFF708F90022802144
:1015D0000848FFF703F9601CC4B2082CE4DB0122C1
:1015E00080210448FFF7FAF8002280210148FFF724
:1015F000F5F870BD000C014010B5012211020A4837
:10160000FFF7ECF8012280210748FFF7E7F80022F6
:101610004FF480710448FFF7E1F80022802102486E
:10162000FFF7DCF810BD0000000C014010B50022EF
:101630004FF480710648FFF7D1F801228021044859
:10164000FFF7CCF8012211020148FFF7C7F810BDDF
:10165000000C014070B5002406E0002500E06D1C80
:10166000B5F57A7FFBD3641CB4F57A7FF5D3FFF729
:101670006FFFAE2000F0CDF8D52000F0CAF8802032
:1016800000F0C7F8A82000F0C4F83F2000F0C1F82F
:10169000D32000F0BEF8002000F0BBF8402000F09E
:1016A000B8F8A12000F0B5F8C82000F0B2F8DA20B0
:1016B00000F0AFF8122000F0ACF8812000F0A9F89B
:1016C000CF2000F0A6F8D92000F0A3F8F12000F018
:1016D000A0F8DB2000F09DF8302000F09AF8A4205C
:1016E00000F097F8A62000F094F88D2000F091F813
:1016F000142000F08EF8AF2000F08BF8FFF712FFF7
:1017000070BD10B50246012000E050430B1EA1F150
:101710000101FAD110BD70B505460C4645F0B00088
:1017200000F077F8102141EA141000F072F804F08C
:101730000F0000F06EF870BD2DE9F04105460E4631
:101740001746721ED206110E6A1E5206100EFFF7C1
:10175000E2FF002409E0A7F12001134A02EB011186
:10176000085D00F066F8601CC4B2082CF3DB721E42
:10177000D206110E6A1E012303EB4202D0B2FFF71C
:10178000CAFF00240BE0A7F12001074A02EB011277
:1017900004F10801505C00F04CF8601CC4B2082C45
:1017A000F1DBBDE8F0810000364000082DE9F0478C
:1017B0008146884615461E46002D06DB2B224146F3
:1017C0004846FFF7B9FF2F4605E02D22414648461F
:1017D000FFF7B2FF6F42002417E0301B411E0A20C2
:1017E000FFF78FFFB7FBF0F00A21B0FBF1F201FB2E
:1017F000120000F1300A08EB0400401CC1B252464E
:101800004846FFF799FF601CC4B2B442E5DBBDE86F
:10181000F08710B50446FFF7EFFE7820FFF7C0FE13
:101820000020FFF7BDFE2046FFF7BAFEFFF7FEFEE1
:1018300010BD10B50446FFF7DFFE7820FFF7B0FEBD
:101840004020FFF7ADFE2046FFF7AAFEFFF7EEFEB1
:1018500010BD000030B589B005460C460121C80214
:1018600000F08CF80121042000F088F818208DF891
:1018700023004FF41060ADF8200003208DF8220003
:1018800008A92948FEF712FF0020ADF81A00ADF8AC
:101890001600681E80B2ADF81800601E80B2ADF868
:1018A000140000208DF81C0005A9204800F0AEFCB3
:1018B00001A800F06EFC6020ADF804000020ADF837
:1018C0000C000120ADF806000020ADF80A0001A9C7
:1018D000164800F0BDFB01A800F05BFC6020ADF8ED
:1018E00004000020ADF80C000120ADF80600002037
:1018F000ADF80A0001A90D4800F000FC01210B48D9
:1019000000F0FAFA0821094800F0EEFB0821074828
:1019100000F032FC0121054800F0D0FA0121034813
:1019200000F0DEFA09B030BD00080140002C014093
:1019300010B504462146024800F035FC10BD0000F9
:10194000002C014010B504462146024800F02DFC51
:1019500010BD0000002C01407047000029B1064A6C
:10196000D2690243044BDA6104E0034AD26982433C
:10197000014BDA61704700000010024029B1064AAD
:1019800092690243044B9A6104E0034A92698243DC
:10199000014B9A61704700000010024030B50021F1
:1019A0000022002400232D4D6D6805F00C0121B1AB
:1019B000042905D0082923D105E0294D056022E03E
:1019C000274D05601FE0254D6D6805F47012234D0D
:1019D0006D6805F48034022505EB92421CB9214D57
:1019E000554305600BE01D4D6D6805F400351DB1D4
:1019F0001C4D5543056002E0194D5543056002E05A
:101A0000174D056000BF00BF144D6D6805F0F00173
:101A10000909154D6B5C0568DD4045600F4D6D682B
:101A200005F4E061090A104D6B5C4568DD40856096
:101A30000A4D6D6805F46051C90A0B4D6B5C456831
:101A4000DD40C560054D6D6805F44041890B074DCB
:101A50006B5CC568B5FBF3F5056130BD0010024055
:101A600000127A0000093D00000000201000002054
:101A700070B50546022D02D0042D14D10AE04FF0B6
:101A8000804000F069FA04B200214FF0804000F07D
:101A90008FFB0AE0064800F05FFA04B20021044818
:101AA00000F086FB01E0002400BF00BF204670BDAF
:101AB00000040040704710B500F002F810BD0000AF
:101AC0000CB50020019000903348006840F480304D
:101AD0003149086000BF3048006800F400300090D1
:101AE0000198401C0190009818B90198B0F5A06FBA
:101AF000F1D12948006800F4003010B101200090B5
:101B000001E0002000900098012843D1234800689C
:101B100040F01000214908600846006820F00300EA
:101B200008600846006840F0020008601A484068F3
:101B3000194948600846406848600846406840F4D3
:101B4000806048600846406820F47C104860084681
:101B5000406840F4E81048600846006840F0807033
:101B6000086000BF0C48006800F000700028F9D041
:101B70000948406820F0030007494860084640686B
:101B800040F00200486000BF0348406800F00C00CD
:101B90000828F9D10CBD00000010024000200240CE
:101BA0002DE9F05F05460E4614463146284602F000
:101BB00055F981460A494868214602F047F88246AD
:101BC00007490868494602F041F88346514601F04A
:101BD000A5FE804601F0D2FF07463846BDE8F09FDB
:101BE000140000207047000010B51348006840F052
:101BF00001001149086008464068104908400E4934
:101C00004860084600680E4908400B4908600846CD
:101C1000006820F4802008600846406820F4FE0038
:101C200048604FF41F008860FFF745FF4FF00060E9
:101C30000449086010BD0000001002400000FFF8D9
:101C4000FFFFF6FE08ED00E0F0B50C461546002259
:101C50000021068C4FF6FE773E400684028B018CF5
:101C60004FF60C7632407E1C06EA03162E433243B2
:101C7000104EB0420ED0104EB0420BD0B0F1804F9B
:101C800008D00E4EB04205D00D4EB04202D00D4EDF
:101C9000B04206D14FF6FD76314044F001063143A3
:101CA00005E04FF6F576314044F0010631430283FA
:101CB0000184F0BD002C01400034014000040040CC
:101CC00000080040000C0040F0B50C46154600220C
:101CD00000210026078C4FF6EF7C07EA0C070784EB
:101CE000028B018C4FF6FF7707EA041640F6FF4798
:101CF0003A404FF6FF7707EA03373A434FF6FF774C
:101D000007EA05273A43114FB8420ED0104FB842A8
:101D10000BD0B0F1804F08D00E4FB84205D00E4F17
:101D2000B84202D00D4FB84206D14FF6DF773940A6
:101D300046F01007394305E04FF65F77394044F02D
:101D40001007394302830184F0BD0000002C0140DC
:101D5000003401400004004000080040000C004036
:101D6000F0B50C461546002200210026078C4FF6E0
:101D7000FF6C07EA0C070784828B018C4FF6FF7714
:101D800007EA04264FF60C773A404FF6FF7707EA4A
:101D900003172F433A43114FB8420ED0104FB842A9
:101DA0000BD0B0F1804F08D00E4FB84205D00E4F87
:101DB000B84202D00D4FB84206D14FF6FF57394016
:101DC00046F48077394305E04FF2FF57394044F439
:101DD0008077394382830184F0BD0000002C0140EC
:101DE000003401400004004000080040000C0040A6
:101DF000F0B50C461546002200210026078C4EF651
:101E0000FF7C07EA0C070784828B018C4FF6FF7773
:101E100007EA043640F6FF473A404FF6FF7707EAF5
:101E200005273A434FF6FF7707EA03373A43114F46
:101E3000B8420ED0104FB8420BD0B0F1804F08D04E
:101E40000E4FB84205D00E4FB84202D00D4FB842E7
:101E500006D14DF6FF77394046F48057394305E007
:101E600047F6FF57394044F4805739438283018451
:101E7000F0BD0000002C014000340140000400408F
:101E800000080040000C004010B50121880700F058
:101E900066F8012803D10121800700F01EF810BD6B
:101EA00010B50121044800F05AF8012803D101219E
:101EB000014800F012F810BD0004004021B1028872
:101EC00042F08002028004E002884FF67F731A40DD
:101ED00002807047CA4302827047CA430282704739
:101EE00021B1028842F00102028004E002884FF62C
:101EF000FE731A400280704731B1B0F8442042F4BA
:101F00000042A0F8442005E0B0F84420C2F30E02DD
:101F1000A0F844207047F0B50C4615461E46002137
:101F2000002200230189028B038C4FF6F877394099
:101F300021434FF6FC473A4040F201173A434FF62F
:101F4000DD773B404FF6FF7707EA06172F433B4309
:101F5000018102830384F0BD0146888C704730B54F
:101F60000246002000230024158A05EA0103958912
:101F700005EA010413B10CB1012000E0002030BDDE
:101F800070B505460C46244885420ED0234885424C
:101F90000BD0B5F1804F08D02148854205D02148AB
:101FA000854202D02048854200D100E000BF208851
:101FB00050B92389A28861882846FFF745FEE18849
:101FC000284600F0F7F825E0208804280AD1238964
:101FD000A28861882846FFF777FEE188284600F04E
:101FE000F2F817E0208808280AD12389A28861889E
:101FF0002846FFF7B5FEE188284600F0F1F809E031
:102000002389A28861882846FFF7F2FEE1882846E6
:1020100000F0EFF870BD0000002C014000340140DA
:102020000004004000080040000C00400021018036
:102030004180012181800021C180018170471AB156
:1020400083890B43838102E083898B4383817047BB
:1020500070B5002400220023058C4FF6FE76354033
:102060000584028C8388048B4FF68F752C40B51E37
:102070002C400D882C43751E2A400D892A434D881B
:102080002A43144DA8420BD0134DA84208D0134D3B
:10209000A84205D0124DA84202D0124DA84213D139
:1020A0004FF6F7752A404D892A434FF6FB752A40B3
:1020B0008D882A434FF6FF652B404FF6FF552B4086
:1020C0008D892B43CD892B4383800483CD888586DE
:1020D000028470BD002C01400034014000400140EA
:1020E00000440140004801400A460021018B4FF6A0
:1020F000F7731940114301837047000070B5002247
:1021000000230024058C4EF6FF7635400584038CB1
:102110008488828B48F6FF752A404FF6FF452A4097
:102120000D884FF6FF7606EA05252A434DF6FF7522
:102130002B400D8906EA05352B434D8806EA053507
:102140002B430B4DA84202D00A4DA84208D14BF6B2
:10215000FF752C408D894FF6FF7606EA85152C43D6
:1021600084808283CD88A0F84050038470BD000035
:10217000002C0140003401400A460021818B4FF2BF
:10218000FF7319404FF6FF7303EA0223194381835B
:1021900070470021018041808180C180018141819F
:1021A0008181C181704781867047A0F840107047D7
:1021B00081847047028B4FF6F3731A400283028BBF
:1021C0000A4302837047028B4FF2FF331A400283A7
:1021D000028B4FF6FF7303EA01231A430283704711
:1021E000828B4FF6F3731A408283828B0A43828379
:1021F0007047828B4FF2FF331A408283828B4FF6F7
:10220000FF7303EA01231A43828370470022028886
:102210001D4B98420ED01D4B98420BD0B0F1804F11
:1022200008D01B4B984205D01A4B984202D01A4B4B
:10223000984204D14FF68F731A404B881A43174BBC
:10224000984207D0164B984204D04FF6FF431A40ED
:10225000CB881A4302808B8883850B8803850A4BC1
:1022600098420BD0094B984208D00E4B984205D0AB
:102270000D4B984202D00D4B984201D10B7A038648
:102280000123838270470000002C0140003401408C
:102290000004004000080040000C00400010004016
:1022A000001400400040014000440140004801404B
:1022B0002DE9F04105460E464DB90D4908693146F4
:1022C00001F0C4FC074601F059FC04460CE0284626
:1022D00001F070FC80460648C168404601F0B6FC3B
:1022E000074601F04BFC04462046BDE8F0810000A3
:1022F0001400002010B540F22551254800F06FF879
:10230000012844D1224800F025F9224908702248CA
:10231000007868B908460078402833D11F48007813
:1023200080BB01201C49087000201D49087029E06D
:1023300019480078012813D1164800780D2803D1D8
:102340000220154908701DE0124800781549144A0A
:102350001278885412480078401C1149087011E026
:102360000D48007802280DD10A4800780A2809D1C2
:102370000020094908700B49094A12788854012045
:102380000649087040F22551014800F00DF810BDD3
:1023900000380140690000206A0000206800002029
:1023A0006B000020B800002010B50022002340F68A
:1023B0006A14A14200D100BF0A1201249440A3B2C2
:1023C000DC43048010BD21B1828942F40052828135
:1023D00004E082894DF6FF731A408281704770B520
:1023E0000246002400230025002040F66A16B14270
:1023F00000D100BFC1F3421501F01F03012606FA08
:1024000003F3012D02D19689334006E0022D02D15B
:10241000168A334001E0968A33400C12012606FAF0
:1024200004F41688344013B10CB1012000E0002000
:1024300070BDF0B50346002400260025002040F6BC
:102440006A17B94200D100BF1846C1F3421401F027
:102450001F06012707FA06F5012C01D10C3004E014
:10246000022C01D1103000E014301AB107682F435C
:10247000076002E00768AF430760F0BD2DE9F04751
:1024800086B005460E460024A24600BFA14600279E
:10249000B08900B100BF2F462C8A4CF6FF70044073
:1024A000F08804432C82AC894EF6F3100440B088C7
:1024B00031890843718908430443AC81AC8A4FF6E3
:1024C000FF400440B0890443AC8201A8FFF766FADC
:1024D0001F48874202D1DDF810A001E0DDF80CA012
:1024E000A88900F4004040B10AEBCA0000EB0A10D2
:1024F00031684900B0FBF1F807E00AEBCA0000EBD5
:102500000A1031688900B0FBF1F86420B8FBF0F0E4
:1025100004012009642101FB1089A88900F400400E
:1025200040B1322000EBC900B0FBF1F000F0070031
:10253000044308E0322000EB09106421B0FBF1F005
:1025400000F00F0004432C8106B0BDE8F0870000C6
:102550000038014001468888C0F30800704700BF7A
:10256000FEE700002DE9F05F04460D461646A81967
:10257000A0EB440000B2374908803748B0F90000AA
:1025800001F018FB8046354901F060FB074601F079
:10259000F5FA00B2304908802E48B0F9000001F089
:1025A00009FB82462E4901F051FB80462A48B0F9CA
:1025B000000001F0FFFA8146414601F0AFF90746FD
:1025C00001F0DCFA00B22449088026480088098816
:1025D000084400B2234908800846B0F90000B0F56D
:1025E000FA5F02DD4FF4FA5008801E48B0F900008F
:1025F00010F5FA5F03DA4EF2C0001A490880194854
:10260000B0F9000001F0D6FA8346174881685846B1
:1026100001F01CFB8246154901F0EEF980460E4898
:10262000B0F9000001F0C6FA82460F4881685046B2
:1026300001F00CFB8146414601F070F9074601F0BC
:102640009DFA00B20A4908800846B0F90000BDE8CA
:10265000F09F00002A0000202C0000203333333F7D
:102660009A99993E2E000020140000200000484353
:1026700028000020490050EAC12018BF04204A0D5C
:1026800018BF40F0010040F2FF72B2EB515F08BF8B
:1026900040F00200012808BF052070472DE9F041F5
:1026A0004F1E00EBC7010446D1E9000115461E4646
:1026B00037F006020DD02A46334600F029FE7F1E71
:1026C00004EBC703D3E9002300F01AFC37F006023D
:1026D000F1D1022F25D0042F13D0062F18BFBDE84B
:1026E000F0812A46334600F013FED4E90A2300F0B5
:1026F00007FC2A46334600F00BFED4E9082300F01D
:10270000FFFB2A46334600F003FED4E9062300F01F
:10271000F7FB2A46334600F0FBFDD4E9042300F022
:10272000EFFB2A46334600F0F3FDD4E9022300F024
:10273000E7FB2A46334600F0EBFDD4E90023BDE871
:10274000F04100F0DDBB012201F02FBC00F0D8BB4E
:10275000002213461046114600F082BC024A0020B7
:10276000110701F022BC000001FDFFFF2DE9F04D33
:102770008D4F21F0004A86B005460C46BA452ADB4B
:10278000AAEB070028430AD08848824501DC1AD109
:10279000CDB106B02846BDE8F04DFFF7D4BF844A5E
:1027A000844B284600F0B4FD07460E46824A834B10
:1027B0002846214600F0ACFD06B03A463346BDE857
:1027C000F04D00F09DBB0120FDF706FD06B0BDE811
:1027D000F04DFFF7BDBF7A48824542DABAF1795F22
:1027E0000BDA2846FFF746FF042808BFFFF7B6FFBD
:1027F000284606B02146BDE8F08D2A460B46104615
:1028000000F086FD834602466E480E460B460621C2
:102810007844FFF743FF5A46334600F079FD80467F
:1028200069488A465A46334604217844FFF736FF02
:102830005A46334600F06CFD00223B4600F060FB38
:1028400002460B464046514600F00AFC2A46234603
:1028500000F05EFD06B02A462346BDE8F04D00F0CC
:102860004FBB284624F0004100223D463B4600F085
:102870004DFE4FF0FF3201F098FB064602465348EA
:102880000F460B4606217844FFF708FF32463B46C9
:1028900000F03EFDCDE900014D4832463B460421A3
:1028A0007844FFF7FBFE32463B4600F031FD002244
:1028B0002B4600F025FB834602913046394600F056
:1028C000C7FA804643480D46504517DCDDE9000154
:1028D0005A46029B00F0C4FB42462B4600F018FD0E
:1028E00042462B4600F00CFB012201F05EFB304A11
:1028F000304B00F0FDFE304A304B4CE04FF0000A08
:1029000052460B46404600F0FBFACDE90310524612
:102910002B461046194600F0FBFC32463B4600F0C1
:10292000F5FDDDE9033200F09BFB06460F46DDE9CD
:1029300000015A46029B00F093FB8346009101225E
:102940003046394601F031FB194A1A4B00F0DEFDE2
:1029500006460F4601224046294601F026FB5A460C
:10296000009B00F0D5FC32463B4600F0C1FE064617
:102970000F4601225046294601F017FB0E4DDFF8A5
:1029800058802A46434600F0C1FD32463B4600F0DF
:10299000BDFD2A46434600F0B9FD002CD8BF81F0AA
:1029A000004106B0BDE8F08D0000F03F0000F07F70
:1029B000075C143326A6913C182D4454FB21F93FA3
:1029C0000000E03F141E00002A1E00009E1D0000B3
:1029D000B41D00003333EF3FFB21E93F2DE9F84FF1
:1029E00004460D4621F0004000917349814211DCFC
:1029F0007249884201DC06D12CB120462946BDE847
:102A0000F84FFFF7A0BE6E48002DCCBF6D496E4950
:102A1000BDE8F88F6D49814211DD6D498142D8BF13
:102A20004FF0FF366DDD20462946FFF723FE0428D0
:102A300008BFFFF793FE20462946BDE8F88F654999
:102A4000654F25F00045814233DD6449814219DD3F
:102A5000002632464FF080432046294600F050FAC7
:102A600080468A4601222046294601F09EFA00222D
:102A70003B4600F03DFE4246534600F0F1FA044664
:102A80000D463EE001260022BA463B462046294636
:102A900000F036FA80460F4600225346204629466B
:102AA00000F026FE42463B4600F0DAFA04460D46A8
:102AB00027E04B4981421BDDDFF828A102260022D6
:102AC00053462046294600F023FC00223B4600F0F6
:102AD00017FA80460F46002253462046294600F04A
:102AE00007FE42463B4600F0BBFA04460D4608E0AE
:102AF000032622462B4600203B4900F0B1FA04464B
:102B00000D4622462B461046194600F001FC8B4626
:102B1000824602460B4600F0FBFB0746024633485E
:102B200088460B4606217844FFF7B8FD52465B46BF
:102B300000F0EEFB82462E488B463A46434605217E
:102B40007844FFF7ABFD3A46434600F0E1FB02460E
:102B50000B46002E504659460CDA00F0D1F92246B9
:102B60002B4600F0D5FB01B022462B46BDE8F04FC6
:102B700000F0CCBC00F0C4F922462B4600F0C8FBA4
:102B80001C4A7A4402EBC603D3E9002300F0B0FDEF
:102B900022462B4600F0ACFD174A7A4402EBC603EE
:102BA000D3E9002300F0B2FC009A002AB8BF81F0FC
:102BB0000041BDE8F88F0000000010440000F07FE5
:102BC000182D4454FB21F93FFB21F9BF0000DC3FE5
:102BD0000000203E0000F33F0000F03F0000E63F11
:102BE000008003400000F83F0000F0BFB61B00006B
:102BF000741B0000121B0000DA1A00002DE9F04DD2
:102C00009446CCF1000423F000464CEA0404524FF1
:102C100046EAD4749A46884621F00042BC4206D85F
:102C2000454240EA050442EAD474BC4204D9BDE8F6
:102C3000F04D6246FFF78ABDAAF14055A5F17F65C8
:102C400055EA0C040BD0022404EAAA74434DDFF8C1
:102C500010E144EAD87452EA000B04D00CE0BDE85D
:102C6000F04DFFF7BBBE002C14BF012CBDE8F08D6A
:102C7000022C30D0032C32D056EA0C0B0AD0BE42C4
:102C800020D1BA4209D126F0804622F08042334654
:102C9000114617E000291ADB25E0DFF8C8B0FB4435
:102CA000002C04BFDBE90001BDE8F08D012C02BF60
:102CB000DBE9000181F00041BDE8F08D022C0AD073
:102CC000032C0CD0BA4212D1B8F1000F0BDA234812
:102CD0002549BDE8F08D28462449BDE8F08D2846F9
:102CE0007146BDE8F08D1D482149BDE8F08D921B6D
:102CF00012153C2AC4BF19481D490EDCBAF1000F59
:102D0000BEBF12F13C0F0020014606DB624600F018
:102D1000A7F921F00041FFF761FE002C08BFBDE8D4
:102D2000F08D012C04BF81F00041BDE8F08D114A07
:102D3000114B022C07D000F0DBFC2A46BDE8F04D19
:102D40000A4B00F0D5BC00F0D3FC2A46BDE8F04D9C
:102D5000064B00F0DBBB00000000F07F182D445450
:102D6000FB2109C06E1A0000FB21F9BFFB210940BD
:102D7000FB21F93F075C143326A6A13C2DE9F0475F
:102D800004464FF07C51204600F060FF8146254606
:102D90002E460C48A0EB660635462946484600F00C
:102DA00055FF8246294600F051FF80464FF07F5183
:102DB00001F049F80746294600F048FF0546284635
:102DC000BDE8F087DF59375FFDF749FA33E00523A7
:102DD0001948B0F9002001210846FEF7E7FC052359
:102DE0001648B0F9002008210120FEF7DFFC144945
:102DF000086800F0C3FE0446052322460121022094
:102E0000FEF7D4FC0F49486900F0B8FE04460523DC
:102E1000224608210220FEF7C9FC05230A480121A9
:102E200002680320FEF7C2FC052308480821026857
:102E30000320FEF7BBFCCAE77000002072000020F0
:102E4000AC000020940000207400002078000020D6
:102E50002DE9F04106460F4600F064FB041E0D46C6
:102E600018BF0120284320F00040C0F17F6000F12E
:102E7000E040C00F0ED0301C18BF0120384320F0B6
:102E80000040C0F17F6000F1E040C00F04BF0120AE
:102E9000FDF7A2F920462946BDE8F08121F0004265
:102EA000A2F16052B2F5801F01F0004328BFD2F1B9
:102EB0007F6C0BD95FEA001C43EAC20242EB507000
:102EC00018BF704728BF20F001007047B2F5801F7F
:102ED000BCBF184670474FEA410C1CF5001F02D2D8
:102EE000084600F07ABF70B500F0BCFA0000008917
:102EF000FFF7F6BF4FF00040A0F5800070470000DC
:102F000010B591EA030F48BF83F0004300F1F88346
:102F1000841A71EB030C05D2121943EB0C03001B4E
:102F200061EB0C01DFF824E14FEA1154A4EB135CD0
:102F30001EEA430F18BF9EEA445F73D023EA0E03D4
:102F4000DCF1200E21EA045143F4801332D322FA3B
:102F50000CFE10EB0E0023FA0CFE41EB0E01CCF13F
:102F6000200E03FA0EFE10EB0E0051F10001B1F538
:102F7000801FCCF1200E32D201EB045112FA0EF276
:102F8000BDE8104058BF7047401C38BF5FEA42029E
:102F900018BF7047002814BF20F0010041F1000164
:102FA0004FEA410313F5001F38BF7047A1F1C0413C
:102FB00000F0A6BA012A43EB0302ACF1200CDCF1CD
:102FC0001F0E32BF4FF0000E23FA0CF310EB03007C
:102FD00041EB0451B4EB115FD0D0A1EB045101F5EA
:102FE000801149085FEA300001EB04510ED350F123
:102FF000000038BF12FA0EFE08D1BDE81040C9E744
:10300000401C38BF5FEA4202CAD1C3E7BDE81040A6
:103010004FEA410313F5001F38BF7047A1F1C041CB
:1030200000F06EBA9EEA445F08D011EA5E0FBDE878
:10303000104004BF01F0004100207047BDE810407F
:1030400070B500F00FFA00BF64FBBE3E0000E0FF69
:1030500002494FF0000000F076BF00BF0000F87F8B
:103060002DE9C04130B4DFF8A0C23CEA111418BF0A
:103070003CEA131400F0EC8081EA03051CEA111409
:1030800044EAD57418BF1CEA131500F0C780A4EBFE
:1030900005044FF0004545EAC12145EAC32341EA52
:1030A000505143EA525304F17F74994204F50034BD
:1030B0004FEAC0204FEAC22208BF904200F09C8035
:1030C0004FEA13650FF24016765D4FEA134506FB93
:1030D00005F7C7F1807706FB07F74FEAD737A7FB5D
:1030E00003687642C8F58038A7FB06CE38BFA8F142
:1030F000010807FB08E64FF0000EA6FB028CE6FB7A
:1031000003CEDCF1000CCEF1004E38BFAEF1010E63
:10311000A6FB0C584FF000074FF00005E6FB0E87AA
:10312000A1FB08C6A0FB07CE16EB0E0645F1000575
:10313000E1FB076515F1E04E7EBFA4F580345FEA40
:1031400046066D4116F1800745F100054FEA172745
:103150004FEA066647EA0567A6F1DE46B6F1805FEC
:103160004FEA15251FD9384624F0010C05EBC47130
:10317000BCF1FE6F01EB0C1102D8F0BCBDE8008180
:1031800024425CBF01F5801E9EEAC47F02D4F0BCDD
:10319000BDE80081244238D4F0BCA1F1C041BDE8B3
:1031A000004100F0ADB94FEAD22242EA43524FEA61
:1031B000D323A7FB02864FEAD02040EA415007FB09
:1031C00003661EEA0E0F4FEAD12105FB026658BFC7
:1031D000A6EB0056B6EB00564FEA520E4EEAC37EFF
:1031E00018EB0E0E56EB530EBDD518EB02085E41E0
:1031F0007F1C55F10005B6E74FF480154FF000072E
:103200004FF000064FF00008ADE7F0BC4FF00000B3
:1032100001F1C04101F00041BDE8008111EA0C1F3D
:103220000CEA131500D00CE013EA0C1F00F0258007
:103230004FF00000F0BC81EA030101F00041BDE85D
:103240000081F0BCBDE8004181EA030100F058B9FB
:10325000F0BCBDE8004170B500F004F9097EFC3E09
:1032600000F007B881EA03014FF0000001F00041CF
:10327000704781EA030100F043B9F0BCBDE80041AA
:103280004FF0000021497047FFFDFBF9F7F5F4F21C
:10329000F0EEEDEBE9E8E6E4E3E1E0DEDDDBDAD8F1
:1032A000D7D5D4D3D1D0CFCDCCCBCAC8C7C6C5C44F
:1032B000C2C1C0BFBEBDBCBBBAB9B8B7B6B5B4B366
:1032C000B2B1B0AFAEADACABAAA9A8A8A7A6A5A451
:1032D000A3A3A2A1A09F9F9E9D9C9C9B9A99999815
:1032E0009797969595949393929191908F8F8E8EB8
:1032F0008D8C8C8B8B8A8989888887878685858445
:1033000084838382828181800000FF070000F87F30
:10331000DFF848C170B51CEA111E1EBF1CEA131568
:103320009EEA0C0F95EA0C0F00F06F8081EA03040F
:1033300023EA4C134EEAD47E21EA4C1141F4801169
:1033400043F48013AE44A1FB024CA0FB0365AEF135
:103350007F7E361955EB0C05A1FB034C4CF10003A5
:10336000A0FB021C16EB0C06654153F10003094259
:1033700018BF46F0010613F4007F0BD14FEA03316A
:103380004FEA0530340341EA155140EA16506FF018
:1033900003020AE04FEAC3214FEAC520F40241EAE2
:1033A000555140EA56506FF0020202EB2E4201EBFB
:1033B000025585EACE710AD05FEA440C18BF24F0AA
:1033C000004450F1000041F1000120EAD47040F2C5
:1033D000FE7C624500D270BDA84214BF4FF080440D
:1033E0004FF04044002E08BF0024BEF1806FA8BFFC
:1033F000A1F1C041BDE8704080F282804FF0000032
:1034000001F1C04101F0004170479EEA0C0F0CEA47
:10341000131518BF95EA0C0F06D04FF0000081EA93
:10342000030E0EF0004170BD00F01CF88900013E53
:1034300000F007B800F009B84FEA430C5FEA5C5CA3
:1034400008D081EA030100F05BB84FEA410C5FEA63
:103450005C5CF6D14FF00000014970470000FF07A7
:103460000000F87F0EF1020E2EF0030E5EF8046BE2
:10347000364205D4012A43EB030515F5001F12D887
:10348000012841EB010C1CF5001F0CD80ED14FEAAE
:10349000D17C15F5001F0CEB4C0C0CF1020C08BF95
:1034A0004CEBD37C04E04FF0080C01E04FEAD37CF6
:1034B0000CEB4C0526FA05F606F00706B6F1040CEF
:1034C00006D20EEB860CBDE870404CF0010C604754
:1034D000DFE80CF0090B02024FF000414FF0000052
:1034E000A1F5002170BD19461046012851EB0104D9
:1034F00018BFD4F5001484BF002001F0004170BD56
:103500000808A0F500114FEA3101704791EA030F56
:1035100010B581F000413FF5FBAC83F0004300F0B3
:10352000EFB800002DE9F04101F5801CBCF5001F4B
:10353000C0F2C3804FEA115C21EA0C510CF1FD0C82
:1035400041F480115FEA5C0C0CF5C07C01D34000B3
:1035500049413DA4890241EA905187028E0E0A0C2E
:10356000A45D04FB04F602FB06F6C6F14046A4FB8C
:103570000662F60D46EA422606FB06F4A4FB01238A
:103580005242C3F1404338BF5B1EA6FB02420024F7
:10359000E6FB0324D20B42EA4446A6FB0623A1FB2A
:1035A00002E2A3FB07E4A4184FF0000252F100026C
:1035B000E3FB01426442C2F1404E38BFAEF1010E5E
:1035C000A6FB04234FF00002E6FB0E32A2FB0346EB
:1035D0004FF00004B61954F10004E2FB0264A1FBB1
:1035E00006E6A4FB07E816EB08064FF0000858F1C2
:1035F0000008E4FB01687642C8F1405838BFA8F1E2
:103600000108A2FB06E4A3FB08E52D194FF0000416
:1036100054F10004E2FB0854A1FB05E6A7FB04E813
:1036200018EB06084FF0000656F10006E1FB048691
:1036300018F1200556F10006A809A8F11B08B109E8
:1036400008F03F08B8F10A0F40EA86601CD901EB88
:103650000C51BDE8F08100BFFCF5EEE8E2DDD8D307
:10366000CFCBC7C3C0BDB9B6B4B1AEACA9A7A5A3F3
:10367000A19F9D9B9A9896959392908F8D8C8B8904
:103680008887868584838281A0FB006800FB01F225
:1036900008EB4208B8EB872807D5341858EB01042B
:1036A000D5D5401C51F10001D1E7341A78EB010463
:1036B000CDD4401E71F10001C9E75FEA4C0C5FEA0E
:1036C0009C5C0DD105D34FF0000001F00041BDE836
:1036D000F081BDE8F04170B5FFF7C4FE6DDBFFBEC1
:1036E000BDE8F0414FF00000004970470000F87F4E
:1036F00010B591EA030F48BF83F000433FF508ACD3
:10370000841A71EB030C07D212198CF0004C43EBB6
:103710000C03001B61EB0C01DFF8A4E14FEA11542C
:10372000A4EB135C1EEA430F18BF9EEA445F00F04F
:10373000B08023EA6E03524221EA0451C3EB6E03C8
:1037400038BF5B1EDCF1200E25D322FA0CFE10EBF5
:103750000E0043FA0CFE41EB0E01CCF1200E03FAF1
:103760000EFE10EB0E0051F10001CCF1200E29D419
:1037700012FA0EF201EB0451BDE8104058BF704739
:10378000401C1CBFB2F1004F704700280CBF491C01
:1037900020F00100704712EB020E43EB030218BF4A
:1037A0004FF0010E4EEA4202ACF1200CDCF11E0E8D
:1037B00054D943FA0CFE10EB0E0051F1FF31CCF15D
:1037C0001E0ED5D50EF1010E12FA0EFE404141EB50
:1037D000010101EB445C5FEA5C5C10D910EBDE7028
:1037E00001EB045138BFBEF1004FBDE8104018BFD7
:1037F000704700280CBF491C20F00100704730D2F0
:103800004FEAD42C11F5001124F400641BD0B1FA56
:1038100081F20B3AA41AA41ED2F12003914030FA8F
:1038200003F31943904001EBCC71002C01EB0451E0
:10383000BDE81040A8BF704701F1C0414FF0000043
:1038400001F000417047B0FA80F310FA03F100D1A3
:1038500010BDE41A173C4805C90AE4E701EB04511E
:1038600010BD491001EB0451BDE810404FEA300093
:1038700002E04FF0000170474A0008BF0042F8D054
:10388000B2F5001F28BF704701F000414FF0000063
:1038900070479EEA445F07D011EA5E0FBDE8104012
:1038A00004BF002100207047BDE8104070B5FFF74D
:1038B000D9FD00BF40DFF63E83F00041104670475F
:1038C0000000E0FF43004FEAD30C4FEA3C0C4340BA
:1038D0001FBF40070CF1605113F0FE4F70471CF002
:1038E000006F03D100200CF0004170470CF0004342
:1038F00043EA507010B540EACC0000F028FA00BF4F
:10390000000000924FEA0001FFF7FABD4FF00041BE
:103910004FF00000A1F500217047000090EA010F70
:1039200048BF81F0004100F1A082421A3CBF801ADA
:1039300089184FEAD0524FF07F4C1CEA410FA2EB9E
:10394000D15318BF9CEA026F00F03B804FF0004C4F
:103950004CEA00204CEA012121FA03FC10EB0C0C8C
:103960001ED202F1FF325FEA1C2040EBC25038BF8A
:1039700070471CF07F0F4FEA400C18BFBCF17F4F1F
:1039800038BF7047C3F12003994008BF20F0010001
:10399000BCF17F4F38BF7047A0F1C04000F01DBAA6
:1039A0004FEA3C00000A40EBC25028BF1CF0FF0F5A
:1039B0004FEA400CE6D018BFBCF17F4F38BF7047CC
:1039C000EAE79CEA026F05D010EA5C0F08BF00F03E
:1039D0000040704710B500F0BAF900BF64FBBE3E6E
:1039E000401058BFC0F14040491058BFC1F140419C
:1039F0008142EFF3008070474FF47F0C1CEAD01235
:103A00001EBF1CEAD11392EA0C0F93EA0C0F00F0D0
:103A1000858090EA010F48BF42F4807240F4000CA8
:103A200041F400002CF07F4120F07F4000B581423E
:103A3000A2EB03020FF2081CACEB504EC0F10000E9
:103A40009EF800E04FEA4E0E00FB0EFC38BF490026
:103A50004FEA2C1C02F5FA020CFB0EF34FEACE1EC5
:103A60004FEA112C4FEAC1210EEB635E42EB22427A
:103A70000EFB0CFC4FEA1C5300FB03114FEA112C08
:103A80004FEA01310EFB0CFC4FEADC4C00FB0C1141
:103A9000C14228BF09184CEB03335DF804EB10EB6F
:103AA000410143EBC250B2F57C0F38BF704729D5B6
:103AB00012F0F00F1CBF00F1C04000F00040704752
:103AC000008182838485868788898B8C8D8E8F91F7
:103AD0009293959697999A9C9D9FA0A2A3A5A7A81B
:103AE000AAACAEB0B2B3B5B7B9BCBEC0C2C5C7C947
:103AF000CCCED1D4D7D9DCDFE2E6E9ECF0F3F7FAAB
:103B0000FE0000004FEA400C0CF1807CBCF17E4FBF
:103B100028BF7047B0F1C04000F05FB990EA010FD4
:103B20000CEAD11348BF42F48072624538BF634546
:103B300007D213F47F0F16D080EA010000F0004096
:103B4000704710B500F003F9097EFC3E00F005B89F
:103B500080EA010000F00040704780EA010000F0B8
:103B6000004000F03AB912F47F0F04BF02487047DA
:103B700080EA010000F031B90000C07F41000B0E67
:103B8000D3F19E0208D950F400034FEA032323FA2D
:103B900002F048BF4042704710B500F0D8F800BFAF
:103BA00049922480002070476FF0004282EA200092
:103BB0007047000010F0004148BF4042B0FA80F367
:103BC00010FA03F2C3F19D030BD051EAC35101EB8C
:103BD0001220530638BF704700F1010008BF20F0E3
:103BE0000100704750EA010C00F113801CF5000F32
:103BF00058BFBCF5000F01D48842704707D710F5B5
:103C0000000F58BF11F5000F15D488427047894244
:103C100070471CF5000F04D5BCF5000FF7D58142A5
:103C200070474FF0807C1CEB400F38BF1CEB410FFE
:103C300001D28142704710B500F089F89224490002
:103C40004FF000504FF08051FFF7CABE4FF47F0C89
:103C50001CEAD0121EBF1CEAD11392EA0C0F93EAA1
:103C60000C0F00F0478090EA010F48BF42F48072C9
:103C70004FF0004C4CEA00204CEA012102EB030219
:103C8000A0FB0113A2F50002002918BF43F00103B5
:103C90005B0028BF4FEA330342EB22425FEA132C5A
:103CA0004CEBC2502EBFBCEB436FB2F57C0F70479C
:103CB0004FEA036CBCF1004F08BF20F00100B2F5E1
:103CC0007C0F38BF70470BD582F0FF0212F5803FA2
:103CD000C8BF704700F1C040D8BF00F00040704737
:103CE00000F5000C5FEA4C0C48BF7047B0F1C040D3
:103CF00000F073B890EA010F0CEAD11348BF42F408
:103D00008072624538BF634504D280EA010000F04A
:103D10000040704710B500F01AF800BF8900013E5E
:103D200000F007B800F009B85FEA410C5FEA1C6CCC
:103D300008D080EA010000F050B85FEA400C5FEA6A
:103D40001C6CF6D14FF00040A0F5800070470EF1DA
:103D5000020E2EF0030E5EF8044B244204D44FEA08
:103D60004102B2F17F4F11D84FEA4003B3F17F4FC8
:103D70000CD80ED14FEAD07CB2F17F4F0CEB4C0C3B
:103D80000CF1020C08BF4CEBD17C04E04FF0080CA6
:103D900001E04FEAD17C0CEB4C0324FA03F404F06D
:103DA0000704B4F1040C06D20EEB840CBDE81040FD
:103DB0004CF0010C6047DFE80CF0070802024FF0FE
:103DC0000040A0F5800010BD0846420018BFD2F1A7
:103DD000807288BF00F0004010BDFF2141EAD05042
:103DE000C005704751EA000C00F113801CF5000F6C
:103DF00058BFBCF5000F01D48142704707D711F5B9
:103E0000000F58BF10F5000F15D48142704789424A
:103E100070471CF5000F04D5BCF5000FF7D588429C
:103E200070474FF0807C1CEB410F38BF1CEB400FFC
:103E300001D28842704780EA010081EA000180EAED
:103E40000100FFF7F8BE80F0004090EA010F7FF517
:103E50006CAD81F0004100F008B8000090EA010F5D
:103E600048BF81F000413FF560AD421A04D882F0AE
:103E70000042A0EB020011444FEAD0524FF07F4CB9
:103E80001CEA410FA2EBD15318BF9CEA026F4AD043
:103E90004FF0004C4CEA00204CEA012121FA03FCCF
:103EA000B0EB0C0C0FD412F0FE0F36D05FEA4C00D2
:103EB0001DD5001240EBC25038BF70471CF03F0FB9
:103EC00018BF70470BE0A2F101025FEA1C2040EB33
:103ED000C25038BF70471CF07F0F18BF7047C3F146
:103EE0002003994014BF401E20F001007047800855
:103EF0004FEA122308BF7047B0FA80FCA2EB0C0215
:103F0000CCF1280C60FA0CF093EA122F04BF00EBFE
:103F1000C25070474FEAC3707047130A5FEADC1063
:103F200008BF7047F6E79CEA026F04D010EA5C0F06
:103F300008BF0020704710B5FFF709FF40DFF63ECD
:103F400081F0004070470CF00F03092B08BF0820D8
:103F500000F059800A2B0BD0082B18BF704708BF00
:103F60001CF0400F0AD04FF000004FF000017047E6
:103F70001CF0400F18BF4FF0004070471CF0100FAE
:103F800008D020F0704300F07F4242EAD3014FEAAC
:103F90004370704700F0604021F07F4242EA000227
:103FA00001F07F4040EA727070474FF0FF0C4CF414
:103FB000E06C1CEA11531CBF9CEA030C9445C2BF81
:103FC000DA4201EB02517047002B0DD0BCF1000F1B
:103FD0000FD0002A01F00041A4BF41F0E04141F0C0
:103FE0007F614FF00000704701F000414FF000008A
:103FF000704750EA01334FF09B0C18BF4CF0806CB7
:104000007FF426A870471CF4801F11D01CF4E02F09
:1040100003D06FEACC31490070474FF04050EFF3C6
:10402000008222F0704242EA000282F30088704768
:104030004FF000007047000000000000000000008A
:10404000000000000000000000F800000000000078
:1040500000333000000000100C06100C06000000B9
:1040600000000000000040C07840C0784000043FDD
:1040700004043F040400007088FC083000000018AD
:1040800020FF211E0000F008F000E01800000021D1
:104090001C031E211E0000F00888700000001E2175
:1040A00023241927211010160E0000000000000024
:1040B000000000000000000000E018040200000002
:1040C00000071820400000020418E0000000004033
:1040D000201807000000404080F0804040000202AD
:1040E000010F01020200000000F0000000000101C9
:1040F000011F01010100000000000000000080B06D
:10410000700000000000000000000000000000013E
:104110000101010101010000000000000000003069
:104120003000000000000000000080601804006003
:1041300018060100000000E010080810E000000F61
:10414000102020100F00001010F8000000000020C8
:10415000203F202000000070080808887000003010
:1041600028242221300000300888884830000018B8
:10417000202020110E000000C02010F800000007D1
:104180000424243F240000F8088888080800001947
:10419000212020110E0000E0108888180000000F78
:1041A000112020110E0000380808C838080000004F
:1041B000003F000000000070880808887000001CA4
:1041C000222121221C0000E010080810E00000005D
:1041D000312222110F00000000C0C00000000000CA
:1041E00000303000000000000080000000000000EF
:1041F00080600000000000008040201008000001E6
:1042000002040810200040404040404040000404A8
:104210000404040404000008102040800000002072
:10422000100804020100007048080808F0000000AF
:10423000003036010000C030C828E810E000071840
:10424000272423140B000000C038E0000000203CAD
:1042500023020227382008F8888888700000203F51
:10426000202020110E00C030080808083800071868
:1042700020202010080008F808080810E000203F5F
:10428000202020100F0008F88888E8081000203F40
:1042900020202320180008F88888E8081000203F14
:1042A000200003000000C03008080838000007188C
:1042B0002020221E020008F808000008F808203F0D
:1042C000210101213F20000808F808080000002013
:1042D000203F2020000000000808F8080800C080E7
:1042E00080807F00000008F888C028180800203F60
:1042F00020012638200008F8080000000000203FB8
:1043000020202020300008F8F800F8F80800203FAE
:10431000003F003F200008F830C00008F808203FA8
:10432000200007183F00E01008080810E0000F10F8
:10433000202020100F0008F808080808F000203F8F
:10434000210101010000E01008080810E0000F182A
:10435000242438504F0008F8888888887000203F4F
:104360002000030C3020007088080808380000384E
:10437000202121221C00180808F808081800000055
:10438000203F2000000008F808000008F808001F7F
:10439000202020201F000878880000C8380800006E
:1043A00007380E010000F80800F80008F800033C88
:1043B0000700073C03000818688080681808203050
:1043C0002C03032C30200838C800C838080000002F
:1043D000203F2000000010080808C83808002038D6
:1043E000262120201800000000FE0202020000002A
:1043F000007F40404000000C30C000000000000082
:1044000000010638C00000020202FE000000004069
:1044100040407F000000000004020202040000008F
:10442000000000000000000000000000000080808C
:104430008080808080800002020400000000000074
:104440000000000000000000808080800000001953
:10445000242222223F2008F8008080000000003F34
:10446000112020110E000000008080800000000E4E
:10447000112020201100000000808088F800000E2C
:10448000112020103F200000808080800000001F4D
:10449000222222221300008080F0888888180020C1
:1044A000203F202000000000808080808000006B82
:1044B00094949493600008F8008080800000203F6E
:1044C000210000203F20008098980000000000207C
:1044D000203F20200000000000809898000000C0CD
:1044E0008080807F000008F8000080808000203FEE
:1044F00024022D302000000808F8000000000020F1
:10450000203F202000008080808080808000203F2D
:1045100020003F20003F8080008080800000203FFE
:10452000210000203F200000808080800000001FCC
:10453000202020201F00808000808000000080FF5D
:10454000A12020110E000000008080808000000E5D
:10455000112020A0FF8080808000808080002020AB
:104560003F21200001000000808080808000003317
:10457000242424241900008080E0808000000000B2
:10458000001F202000008080000000808000001FAD
:10459000202020103F20808080000080808000014B
:1045A0000E300806010080800080008080800F307F
:1045B0000C030C300F000080800080808000002001
:1045C000312E0E312000808080000080808080812C
:1045D0008E7018060100008080808080800000219D
:1045E000302C2221300000000000807C02020000FC
:1045F0000000003F404000000000FF0000000000FD
:104600000000FF0000000002027C8000000000406B
:10461000403F000000000006010102020404000007
:104620000000000000000000555555555555C53F88
:104630007D6FEB0312D6D4BF5544880E55C1C93FD8
:104640003B8F68B52882A4BF88B20175E0EF493F6F
:1046500009F7FD0DE13D023F4B2D8A1C273A03C0AF
:10466000C88A599CE52A004059018D1B6C06E6BF9B
:1046700082922EB1C5B8B33F4FBB610567ACDD3F39
:10468000182D4454FB21E93F9BF681D20B73EF3F79
:10469000182D4454FB21F93FE2652F227F2B7A3CF1
:1046A000075C143326A6813CBDCBF07A8807703CAA
:1046B000075C143326A6913CC4EB98999999C9BF1D
:1046C000711623FEC671BCBF6D9A74AFF2B0B3BF52
:1046D0009AFDDE522DDEADBF2F6C6A2C44B4A2BF12
:1046E0000D5555555555D53FFF8300922449C23F7E
:1046F0006E204CC5CD45B73F513DD0A0660DB13FB2
:10470000EB0D76244B7BA93F11DA22E33AAD903FC3
:1047100000000000000000003847000800000020F2
:104720009400000028010008CC47000894000020F5
:10473000EC06000044010008000000000102030430
:10474000010203040607080902040608000070437A
:10475000000096440000F042000048430000FA4385
:104760000000000000000000000000000000000049
:10477000000000000000803F00000000000000007A
:104780000000000000000000000000000000000029
:10479000C8000000201C0000E0E3FFFFFA0000005A
:1047A0000000000000000000000000000000000009
:1047B00000000000000000000000000000000000F9
:0C47C000000000000000E04000000000CD
:04000005080000ED02
:00000001FF
